:020000040000FA
:04000000F2EF23F008
:08000800056ED8CF06F0E0CF31
:1000100007F00001E9CF0DF0EACF08F0E1CF09F0D9
:10002000E2CF0AF0D9CF0BF0DACF0CF0F3CF14F017
:10003000F4CF15F0FACF16F0FBCF17F000C00FF099
:1000400001C010F002C011F003C012F004C013F0A0
:100050009DAA2EEF00F09EBA8DEF05F0A3AA34EF13
:1000600000F0A4BAC4EF05F0F2AA3AEF00F0F2B43F
:10007000FCEF05F0F2A840EF00F0F2B206EF06F058
:100080000FC000F010C001F011C002F012C003F068
:1000900013C004F00E8E0DC0E9FF08C0EAFF09C0CE
:1000A000E1FF0AC0E2FF0BC0D9FF0CC0DAFF14C0A9
:1000B000F3FF15C0F4FF16C0FAFF17C0FBFF055091
:1000C00007C0E0FF06C0D8FF1000F2CF0EF0F29E8E
:1000D000F76AE80FF66E000EF722000EF86E0900C0
:1000E000F5500EBEF28E1200280C0106F2CF0EF073
:1000F000F29EF76A0A0FF66E010EF722000EF86EF6
:100100000900F5500EBEF28E120020202020202083
:100110002020202020202020202020202000F2CF7E
:100120000EF0F29EF76A3C0FF66E010EF722000EFB
:10013000F86E0900F5500EBEF28E1200204D697364
:1001400074616B652E2E2E20202020202020202060
:100150000000F2CF0EF0F29EF76A700FF66E010EFD
:10016000F722000EF86E0900F5500EBEF28E120056
:100170002043594C494E4445522049532045525240
:100180004F5221200000F2CF0EF0F29EF76AA40F2A
:10019000F66E010EF722000EF86E0900F5500EBE45
:1001A000F28E12002020203C3C204D414348494E15
:1001B00045203E3E202020200000F2CF0EF0F29E8F
:1001C000F76AD80FF66E010EF722000EF86E0900DE
:1001D000F5500EBEF28E120052656164792E2E2EFD
:1001E0002020202020202020202020200000F2CFCE
:1001F0000EF0F29EF76A0C0FF66E020EF722000E5A
:10020000F86E0900F5500EBEF28E1200202020205C
:1002100020202020202020202020202020202020DE
:100220000000F2CF0EF0F29EF76A400FF66E020E5B
:10023000F722000EF86E0900F5500EBEF28E120085
:10024000436F696C2575206973204E47202020205C
:10025000202020202000F2CF0EF0F29EF76A740FCB
:10026000F66E020EF722000EF86E0900F5500EBE73
:10027000F28E1200436F696C312D32206973204E6B
:10028000472020202020202020200000F2CF0EF048
:10029000F29EF76AAA0FF66E020EF722000EF86EB3
:1002A0000900F5500EBEF28E1200436F696C312DBD
:1002B00033206973204E472020202020202020203A
:1002C0000000F2CF0EF0F29EF76AE00FF66E020E1B
:1002D000F722000EF86E0900F5500EBEF28E1200E5
:1002E000436F696C322D33206973204E47202020E4
:1002F0002020202020200000F2CF0EF0F29EF76A8E
:10030000160FF66E030EF722000EF86E0900F55078
:100310000EBEF28E1200436F696C20312D332069BE
:1003200073204E472020202020202000F2CF0EF006
:10033000F29EF76A4A0FF66E030EF722000EF86E71
:100340000900F5500EBEF28E1200204331203D20F0
:1003500025660000F2CF0EF0F29EF76A720FF66E7D
:10036000030EF722000EF86E0900F5500EBEF28E55
:100370001200204332203D2025660000F2CF0EF00F
:10038000F29EF76A9A0FF66E030EF722000EF86ED1
:100390000900F5500EBEF28E1200204333203D209E
:1003A00025660000F2CF0EF0F29EF76AC20FF66EDD
:1003B000030EF722000EF86E0900F5500EBEF28E05
:1003C0001200436F696C73206973204F4B2020200B
:1003D0002020202020202000F2CF0EF0F29EF76A8D
:1003E000F60FF66E030EF722000EF86E0900F550B8
:1003F0000EBEF28E12005363726577206973204E31
:10040000472020202020202020202000F2CF0EF0A6
:10041000F29EF76A2A0FF66E040EF722000EF86EAF
:100420000900F5500EBEF28E1200515220436F6447
:1004300065206973204E472E2E2E2020202000009C
:10044000F2CF0EF0F29EF76A5E0FF66E040EF72200
:10045000000EF86E0900F5500EBEF28E120020500C
:100460006C656173652073656C6563742074797065
:1004700065200000F2CF0EF0F29EF76A920FF66E42
:10048000040EF722000EF86E0900F5500EBEF28E33
:1004900012003E3E20312E436865636B20496E7426
:1004A0006572666163650000F2CF0EF0F29EF76A36
:1004B000C60FF66E040EF722000EF86E0900F55016
:1004C0000EBEF28E1200202020322E536574746905
:1004D0006E6720536372657720200000F2CF0EF024
:1004E000F29EF76AFA0FF66E040EF722000EF86E0F
:1004F0000900F5500EBEF28E1200202020332E533C
:10050000657474696E6720436F696C732020000006
:10051000F2CF0EF0F29EF76A2E0FF66E050EF7225E
:10052000000EF86E0900F5500EBEF28E120020206B
:1005300020312E436865636B20496E746572666175
:1005400063650000F2CF0EF0F29EF76A620FF66E5E
:10055000050EF722000EF86E0900F5500EBEF28E61
:1005600012003E3E20322E53657474696E6720532C
:100570006372657720200000F2CF0EF0F29EF76ADA
:10058000960FF66E050EF722000EF86E0900F55074
:100590000EBEF28E12003E3E20332E5365747469F7
:1005A0006E6720436F696C7320200000F2CF0EF05D
:1005B000F29EF76ACA0FF66E050EF722000EF86E6D
:1005C0000900F5500EBEF28E1200202053637265B2
:1005D00077202620426175645261746520200000F6
:1005E000F2CF0EF0F29EF76AFE0FF66E050EF722BE
:1005F000000EF86E0900F5500EBEF28E1200426138
:100600007564526174653A20313932303020422F9E
:1006100073200000F2CF0EF0F29EF76A320FF66EF2
:10062000060EF722000EF86E0900F5500EBEF28E8F
:1006300012005370656320436F696C7320312D3352
:100640002E2E2E2020200000F2CF0EF0F29EF76A10
:10065000660FF66E060EF722000EF86E0900F550D2
:100660000EBEF28E120043686F6F7365206D6F646B
:100670006520636865636B2020200000F2CF0EF0D8
:10068000F29EF76A9A0FF66E060EF722000EF86ECB
:100690000900F5500EBEF28E12003E3E2043686502
:1006A000636B20616C6C207363726577202000009F
:1006B000F2CF0EF0F29EF76ACE0FF66E060EF7221C
:1006C000000EF86E0900F5500EBEF28E12002020CA
:1006D00020446F6E2774206361726520616C6C200A
:1006E00020200000F2CF0EF0F29EF76A020FF66EA5
:1006F000070EF722000EF86E0900F5500EBEF28EBE
:100700001200202020436865636B20616C6C2073AD
:100710006372657720200000F2CF0EF0F29EF76A38
:10072000360FF66E070EF722000EF86E0900F55030
:100730000EBEF28E12003E3E20446F6E2774206380
:1007400061726520616C6C2020200000F2CF0EF0F9
:10075000F29EF76A6A0FF66E070EF722000EF86E29
:100760000900F5500EBEF28E1200536176652074BA
:1007700079706520636865636B2E2E2E2020000043
:10078000F2CF0EF0F29EF76A9E0FF66E070EF7227A
:10079000000EF86E0900F5500EBEF28E1200557371
:1007A00065206D6F646520636865636B20616C6CA8
:1007B00020200000F2CF0EF0F29EF76AD20FF66E04
:1007C000070EF722000EF86E0900F5500EBEF28EED
:1007D0001200557365206D6F646520446F6E277439
:1007E0002043617265200000F2CF0EF0F29EF76A9E
:1007F000060FF66E080EF722000EF86E0900F5508F
:100800000EBEF28E1200436865636B20616C6C2033
:10081000736372657720202020200000F2CF0EF055
:10082000F29EF76A3A0FF66E080EF722000EF86E87
:100830000900F5500EBEF28E1200446F6E27742030
:100840006361726520616C6C207363726577000070
:10085000F2CF0EF0F29EF76A6E0FF66E080EF722D8
:10086000000EF86E0900F5500EBEF28E1200436FB6
:100870006E666967205370656320436F696C732EE1
:100880002E200000F2CF0EF0F29EF76AA20FF66E55
:10089000080EF722000EF86E0900F5500EBEF28E1B
:1008A00012004331483A202530336C642020433114
:1008B0004C3A202530336C6420200000F2CF0EF03B
:1008C000F29EF76ADA0FF66E080EF722000EF86E47
:1008D0000900F5500EBEF28E12004332483A202530
:1008E00030336C64202043324C3A202530336C6422
:1008F00020200000F2CF0EF0F29EF76A120FF66E83
:10090000090EF722000EF86E0900F5500EBEF28EA9
:1009100012004333483A202530336C64202043339F
:100920004C3A202530336C6420200000F2CF0EF0CA
:10093000F29EF76A4A0FF66E090EF722000EF86E65
:100940000900F5500EBEF28E120020203C3C2053D0
:100950006176652053706563203E3E2020200000B4
:10096000F2CF0EF0F29EF76A7E0FF66E090EF722B6
:10097000000EF86E0900F5500EBEF28E120057619F
:10098000697420466F7220536176652020202020F4
:1009900020200000F2CF0EF0F29EF76AB20FF66E42
:1009A000090EF722000EF86E0900F5500EBEF28E09
:1009B0001200202020202020202020202020202065
:1009C000202020200000F2CF0EF0F29EF76AE40F04
:1009D000F66E090EF722000EF86E0900F5500EBEF5
:1009E000F28E12002020202020202000F2CF0EF0D6
:1009F000F29EF76A0A0FF66E0A0EF722000EF86EE4
:100A00000900F5500EBEF28E120053617665206922
:100A10007320636F6D706C6574652E2E2E20000040
:100A2000F2CF0EF0F29EF76A3E0FF66E0A0EF72234
:100A3000000EF86E0900F5500EBEF28E1200202056
:100A40003C3C20204146452D3331393620203E3E66
:100A500020200000F2CF0EF0F29EF76A720FF66EC1
:100A60000A0EF722000EF86E0900F5500EBEF28E47
:100A7000120020202046533132303832392D322EA8
:100A8000312E322020200000F2CF0EF0F29EF76AC5
:100A9000A60FF66E0A0EF722000EF86E0900F5504A
:100AA0000EBEF28E12004D414348494E452053542C
:100AB0004152540D0000F2CF0EF0F29EF76AD40FAF
:100AC000F66E0A0EF722000EF86E0900F5500EBE03
:100AD000F28E1200436865636B2E2E2E202020209C
:100AE0002020202020202000F2CF0EF0F29EF76A76
:100AF000060FF66E0B0EF722000EF86E0900F55089
:100B00000EBEF28E120052455345540D00009EAAAF
:100B1000FED7AECF01F08EEF05F0F9D701C059F046
:100B2000000E5BB0010E000A03E0010A10E023D0C2
:100B300059504F0806E059504E0803E059505208EA
:100B400002E15B8003D019965B90596A14D059502A
:100B50004B0A03E00C0A06E009D08D9419865B90DD
:100B6000596A08D019965B90596A04D019965B901F
:100B7000596A00D000D09E9A40EF00F0A4AAFED798
:100B80006ECF01F0C6EF05F0B16BF8D701C0B1F040
:100B9000B1510D0823E0036A5C502B0FE96E000E83
:100BA0000320EA6EB1C0EFFF036A5C503F0F016E95
:100BB000000E032203C0B3F0036A5C502B0FE96EF2
:100BC000000E0320EA6EEFCFB4F0B3C0EAFF01C01D
:100BD000E9FFB4C0EFFF5C2A19980BD0036A5C50A0
:100BE0002B0FE96E000E0320EA6E0D0EEF6E5C6AAD
:100BF0001988A49A40EF00F05A2A5A50520803E28A
:100C00005A6A959E8C7EF29440EF00F0420E006E80
:100C1000002EFED7000081A0FED71980F29240EF8F
:100C200000F0EA6A9A0EE96EEF500EE00C0E016ECB
:100C3000006A002EFED7012EFBD7F70E006E002EA5
:100C4000FED700D0EF2EF2D7000CC70ED56ED76AB4
:100C5000D66AA9EF06F0A139F00B006E0F0E8714CB
:100C60000010876E00009086060E006E002EFED7E4
:100C700000009096000C020EA15F0BE3EA6AA10E41
:100C8000E96EEF5006E0020E006E002EFED7EF2E4A
:100C9000FAD751EF06F08792020EA06FFA0EA16FFD
:100CA000EAD7A02FFBD79EA187929EB18782000032
:100CB00090969F39A06F0F0EA017A0C0A1F0CBDFB8
:100CC0009F510F0BA06FA16FC6DF000C000E996E35
:100CD000879290960F0E9A6FA4DF010E5D6E5D50A5
:100CE000030808E3030EA16FB6DF050E9A6F99DFC4
:100CF0005D2AF5D7020EA16FAEDF5D6A5D50030875
:100D00000FE3036A5D50F2CF5EF0F29E65EC00F0F7
:100D10005EBEF28E5F6E9E6B9F6FBDDF5D2AEED76B
:100D2000B4EF06F01982BCEF06F05A6A95988C88E9
:100D300095948C8495928C8295968C86959A8C8AC3
:100D400095908C80C80E9A6F6CDF8D828D848D8615
:100D50007CD7C150C00B0C09C16EC080C082C0845A
:100D6000C08EC2808996B2D7020E5D6EFA0E9A6F5F
:100D700058DF5D2EFBD7D6D777EF24F085B21ED093
:100D800095908C90FA0E9A6F4CDF95988C88959A76
:100D90008C8A95968C86C70E9A6F43DF95948C84C7
:100DA000640E9A6F3EDF95928C82960E9A6F39DFB1
:100DB00095908C80640E9A6F34DF33D085B019D053
:100DC00095988C88959A8C8A95968C86C70E9A6F82
:100DD00028DF95948C84640E9A6F23DF95928C8221
:100DE000960E9A6F1EDF95908C80640E9A6F19DFB5
:100DF00018D095988C88959A8C8A95968C86C70E73
:100E00009A6F0FDF95948C84640E9A6F0ADF959227
:100E10008C82960E9A6F05DF95908C80640E9A6F87
:100E200000DF9BEF0AF08D868D8489868D820A0E05
:100E30009A6FF7DE000C010E9B5DFC0F0EE2040FB3
:100E400037EF07F09C6B09D0400E9C6F06D0140E54
:100E50009C6F03D0540E9C6F00D0010E9A5D9C27AE
:100E60009C5180099D6F9E6B9F6F15DF000CF2CF28
:100E70000EF0F29EE824F76AF736990FF66E0E0E22
:100E8000F722000EF86EFB6E0A00F550FA6E0800AD
:100E9000F5500EBEF28EF96E440E480E4E0E540EF4
:100EA00099510C0A05E0060A0BE0020A0FE013D084
:100EB0009E6B010E9F6FEFDE020E9A6FB2DE11D0B5
:100EC000010E9A6F020E9B6FB6DF0BD09E6B100E59
:100ED0009F6FE1DE06D0010E9E6F99C09FF0DBDEB2
:100EE00000D0000C010E9A6F9B6FA5DF8B6B8B51AE
:100EF00076EC00F08B2B006E996FD2DF130E8B5DBA
:100F0000F6E1010E9A6F020E9B6F95DF8B6B8B5192
:100F100076EC00F08B2B006E996FC2DF130E8B5DA9
:100F2000F6E1010E9A6F030E9B6F85DF8B6B8B5181
:100F300076EC00F08B2B006E996FB2DF130E8B5D99
:100F4000F6E1010E9A6F040E9B6F75DF8B6B8B5170
:100F500076EC00F08B2B006E996FA2DF130E8B5D89
:100F6000F6E1000CF2CF5DF0F29EAA6A460EA96E81
:100F7000A69CA69EA680A8505DBEF28E296EFA0E93
:100F80009A6F4FDE2950010A03E0030A11E020D0D6
:100F9000010E9A6F020E9B6F4EDF5D6A5D5024DC7E
:100FA0005D2A006E996F7CDF140E5D5CF7E120D046
:100FB000010E9A6F020E9B6F3EDF5D6A5D502EDC64
:100FC0005D2A006E996F6CDF140E5D5CF7E110D046
:100FD000010E9A6F020E9B6F2EDF5D6A5D5004DC7E
:100FE0005D2A006E996F5CDF140E5D5CF7E100D046
:100FF000EAEF09F0080E016E00D000D08B969496AF
:1010000000D000D0000061378B98D8B09488D8A069
:101010009498948682A6FED7012EEED700D000D0F9
:101020008B9694960000948800D000D0000000D0E9
:1010300000D00000948682A6FED7016A00D000D0BE
:10104000000082B801808B9694968B98949868EFF4
:1010500008F0080E616F00C062F0948800D000D0E4
:101060000000948682A6FED782B8D88082A8D89045
:10107000013600D000D094968B96612FEED79488DD
:1010800000D000D000008B986251D8A49498000042
:10109000948682A6FED700D000D08B96949600D07E
:1010A00000D000008B9894986AEF08F0948800D0E4
:1010B00000D0948600D000D000008B98949800D087
:1010C00000D08B969496010E5E24606F616F92D76C
:1010D000006ABFD701C05FF094980000948682A692
:1010E000FED700D000D000D00000948800D000D0FF
:1010F0005FC001F0000CEACF67F0E9CF66F060AFA7
:1011000008D0668F66A9662B5F1E601F5F2AD8B461
:10111000602B6039F009626F6227E20F636F320F54
:10112000656F60510F0B632763276527E90F646FB5
:10113000642764275F380F0B64276527643765379A
:10114000651F65375F500F0B65276237070E616FAC
:101150000A0E64076527FDE363076427FDE3620762
:101160006327FDE361076227FDE3EA6A610EE96E2A
:10117000070E6615669DE906661507E166B9E92A58
:1011800066B903D0200E006E1CD0E926650EE95C1E
:10119000D8B4668DEF50006E08E166BD06D066B922
:1011A0001BD066B702D0200E0BD066AF06D02D0E36
:1011B000006EED50669D669F04D066876699300E7E
:1011C0000026EACF60F0E9CF5FF000C099F068DE5A
:1011D00060C0EAFF5FC0E9FFEE5066ADD7D7000CF4
:1011E000F2CF5DF0F29EAA6A0A0EA96EA69CA69E98
:1011F000A680A8505DBEF28E1D6A1C6EF2CF5DF017
:10120000F29EAA6A140EA96EA69CA69EA680A8505D
:101210005DBEF28E1F6A1E6EF2CF5DF0F29EAA6A6C
:101220001E0EA96EA69CA69EA680A8505DBEF28E3C
:10123000216A206EF2CF5DF0F29EAA6A280EA96E96
:10124000A69CA69EA680A8505DBEF28E236A226E42
:10125000F2CF5DF0F29EAA6A320EA96EA69CA69EFF
:10126000A680A8505DBEF28E256A246EF2CF5DF096
:10127000F29EAA6A3C0EA96EA69CA69EA680A850C5
:101280005DBEF28E276A266E010E9A6F020E9B6F6C
:10129000D2DD5D6A5D5042EC04F05D2A006E996F0C
:1012A000FFDD050E5D5CF6E10B0EE96E1DC060F022
:1012B0001CC05FF020DF0A0E5E6E5E5042EC04F050
:1012C0005E2A006E996FECDD110E5E5CF6E10B0E8E
:1012D000E96E1FC060F01EC05FF00DDF200E996F39
:1012E000DFDD200E996FDCDD010E9A6F030E9B6F20
:1012F000A2DD5D6A5D505EEC04F05D2A006E996FC0
:10130000CFDD050E5D5CF6E10B0EE96E21C060F0ED
:1013100020C05FF0F0DE0A0E5E6E5E505EEC04F000
:101320005E2A006E996FBCDD110E5E5CF6E10B0E5D
:10133000E96E23C060F022C05FF0DDDE200E996F01
:10134000AFDD200E996FACDD010E9A6F040E9B6F1E
:1013500072DD5D6A5D507AEC04F05D2A006E996F73
:101360009FDD050E5D5CF6E10B0EE96E25C060F0B9
:1013700024C05FF0C0DE0A0E5E6E5E507AEC04F0B0
:101380005E2A006E996F8CDD110E5E5CF6E10B0E2D
:10139000E96E27C060F026C05FF0ADDE200E996FC9
:1013A0007FDD200E996F7CDD3AEF0AF09BDDC80EE1
:1013B0009A6F37DC010E9A6F9B6F3DDD5D6A5D5061
:1013C000D6EC02F05D2A006E996F6ADD140E5D5C4A
:1013D000F6E1C8D5010E9A6F030E9B6F2CDD5D6A96
:1013E0005D50F0EC02F05D2A006E996F59DD140E2D
:1013F0005D5CF6E119B20ED0700E5E6E57DE01C074
:101400002AF02A507F0806E0700E5E6E4FDE01C0A3
:101410002AF0F7D7010E9A6F9B6F0DDD5D6A5D5064
:101420000AEC03F05D2A006E996F3ADD140E5D5CE4
:10143000F6E1010E9A6F020E9B6FFDDC5D6A5D5056
:10144000F7EC00F05D2A006E996F2ADD140E5D5CEA
:10145000F6E1010E9A6F030E9B6FEDDC5D6A5D5045
:10146000F7EC00F05D2A006E996F1ADD140E5D5CDA
:10147000F6E1B6D6000C010E9A6F9B6FDCDC5D6A5C
:101480005D50C3EC00F05D2A006E996F09DD140E0B
:101490005D5CF6E1010E9A6F020E9B6FCCDC5D6A1B
:1014A0005D50DDEC00F05D2A006E996FF9DC140EE2
:1014B0005D5CF6E1010E9A6F030E9B6FBCDC5D6A0A
:1014C0005D50F7EC00F05D2A006E996FE9DC140EB8
:1014D0005D5CF6E1010E9A6F040E9B6FACDC5D6AF9
:1014E0005D50F7EC00F05D2A006E996FD9DC140EA8
:1014F0005D5CF6E1320E9A6F11EC06F0DDEF0AF05A
:101500005D6A5D5001080CE38D92780E9A6F11ECC4
:1015100006F08D821E0E9A6F11EC06F05D2AF1D74F
:10152000000C030E1A6E199A199C1B6A19901996D1
:101530001994596A23D477DC19A23ED0010E9A6F10
:101540009B6F79DC5D6A5D5010EC05F05D2A006EE2
:10155000996FA6DC140E5D5CF6E1010E9A6F020E27
:101560009B6F69DC5D6A5D502AEC05F05D2A006EB8
:10157000996F96DC140E5D5CF6E1080E5D6EFA0E56
:101580009A6F11EC06F05D2EFAD710DF5D6A5D50A0
:1015900044EC05F05D2A006E00509EA8FED7AD6EAB
:1015A0000E0E5D5CF4E1080E5D6EFA0E9A6F11ECA2
:1015B00006F05D2EFAD719925ED7A2DF79EF24F0FC
:1015C000010E9A6F020E9B6F36DC5E6A5E508FECE6
:1015D00000F05E2A006E996F63DC140E5E5CF6E12B
:1015E000010E9A6F030E9B6F26DC5E6A5E50A9ECBB
:1015F00000F05E2A006E996F53DC140E5E5CF6E11B
:10160000000C8D96640E9A6F11EC06F08D84640EBA
:101610009A6F11EC06F0000CF4DF8D92060E8E6FBF
:10162000FA0E9A6F11EC06F08E2FFAD78D82460EC5
:101630009A6F11EC06F08D530CE08D925A0E9A6F52
:1016400011EC06F08D82140E9A6F11EC06F08D07E6
:10165000F2D7000C86B00AD086A608D082B406D095
:1016600081BA04D085B002D095908C90566A556AA4
:101670005650070818E303E15550CF0814E386B02D
:101680000AD086A608D082B406D081BA04D085B22A
:1016900002D05D8010D0010E9A6F11EC06F0552A31
:1016A000D8B4562AE5D75D908BDFABDF0F0E8D6F78
:1016B000B3DF95908C80000E5DB0010E016E000CC2
:1016C00086B002D095988C98566A556A565007088D
:1016D00010E303E15550CF080CE384BE02D05D80D7
:1016E00010D0010E9A6F11EC06F0552AD8B4562A84
:1016F000EDD75D9065DF85DF0F0E8D6F8DDF9598DF
:101700008C88000E5DB0010E016E000C86A602D022
:10171000959A8C9A566A556A5650070810E303E169
:101720005550CF080CE386B602D05D8010D0010E74
:101730009A6F11EC06F0552AD8B4562AEDD75D9071
:101740003FDF5FDF0F0E8D6F67DF959A8C8A000E8B
:101750005DB0010E016E000C8E0E006E8CC001F0AB
:101760008BC002F0036A015209E102C001F0026A73
:10177000080E005E015202E1006A08D0D89001BE56
:1017800004D0023601360006F9D7019E000CA451A0
:10179000D8B471D0006EA851D8B46DD0002604E33F
:1017A000810E002668E204D07F0E005E64E363E0F1
:1017B000A5C0ACF0A951AC1BA58FA98FA751AB0355
:1017C000F4CFAEF0A651AA03F4CF03F0F3CFADF0FF
:1017D000AB03F350AE27F450AD23000E0322A75104
:1017E000AA03F350AE27F450AD23000E026A032281
:1017F0000222A551AB03F350AD27F4500322000E93
:101800000222A551AA03F3500326F4500222000E2F
:10181000016A0122A751A903F350AD27F450032216
:10182000000E02220122A651A903F3500326F45010
:101830000222000E0122A551A903F3500226F45002
:101840000122002A01BE05D0AD370336023601362B
:101850000006000EADAF0AD0032A02220122015079
:1018600005E1025003E1035001E1002AACBF018E03
:10187000ACAF019E04D0006A016A026A036A000CE0
:10188000800ED8B2941B996B9A6B90C098F09451CB
:10189000981B8F51D8B4DCD0976F006E9351D8B499
:1018A000E0D0975FD8B481D03DE394C09DF09D8F88
:1018B00095C09CF096C09BF09A6BD8909D339C335A
:1018C0009B339A33972FF8D798AF03D09981DDD007
:1018D000999197919989EA6A920EE96EE9D099995E
:1018E00098BF0AD097A113D09D339C339B339A3372
:1018F000002AD8B4C5D00BD09DBF0CD0D8909A3751
:101900009B379C379D370006D8B4BAD0F5D7998D50
:101910006BD0999D90C098F090AF02D09D8FA9D0C8
:101920009D9FA7D093C097F093C000F08F51975F11
:1019300090C09DF09D8F91C09CF092C09BF09A6BDF
:10194000D8909D339C339B339A33972FF8D798AF19
:1019500003D099839AD099939791998BEA6A960EBE
:10196000E96EA6D0999B98BF0AD097A113D09D335A
:101970009C339B339A33002AD8B482D00BD09DBFBE
:101980000CD0D8909A379B379C379D370006D8B437
:1019900077D0F5D7998F28D0999F94C098F094AFBD
:1019A00002D09D8F66D09D9F64D094C09DF09D8F86
:1019B00095C09CF096C09BF098AF04D09D9F9985F0
:1019C00064D099959A6B9791EA6A920EE96E70D0FD
:1019D00098BF1CD090C098F097A106D09D339C333F
:1019E0009B339A33002A4CE09AAF0BD09B2B09E132
:1019F0009C2B07E19D2B05E19D339C339B33002AF3
:101A00003FE099BD86D799BFC7D71CD0800E9D1BDC
:101A10009DAF04D03AD094C098F00AD090C098F00E
:101A20009D5306E19C5304E19B5302E1006A21D0DF
:101A30009DBF08D0D8909A379B379C379D37002E92
:101A4000F7D71ED098AF02D09D8F13D09D9F11D095
:101A500093C000F094C09DF095C09CF096C09BF0A0
:101A600008D08FC000F090C09DF091C09CF092C053
:101A70009BF09DC001F09CC002F09BC003F034D0ED
:101A8000006A016A026A036A2FD09A6B9B1F9C1F2F
:101A90009D1F9A1F9A2B05E19B2B03E19C2B01E1D3
:101AA0009D2B99B115D799B356D799B58AD7B3D786
:101AB000EF509B2705E39C2B03E19D2BD8B4978126
:101AC000ED52EF509C2703E39D2BD8B49781ED5244
:101AD000EF50EFBE01D0800A9D27D8B0978199B909
:101AE000FED699BB3FD774D7000C8F51D8B4A5D080
:101AF0009B6F9351D8B4A1D09B5F05E37F0E9B27CA
:101B0000D8B09BD006D0810E9B5FD8A096D0D8B419
:101B100094D09BC000F0016A026A036A9A6B90C07D
:101B200099F0998F91C098F092C097F0190E9B6F21
:101B30009651975F0DE2010E985F0AE2995F08E205
:101B40009A5F06E29A2B992B982B9651972728D0CB
:101B50009551985F12E2010E995F0FE29A5F0DE2D4
:101B60009A2B992B955198279651972719E3982BE3
:101B700017E1992B15E19A2B13D094518009995FA5
:101B80000EE2010E9A5F0BE29A2B9451800999277D
:101B900095519827E9E3992BE7E19A2BE5D7038044
:101BA0009B2F01D00BD0D8909737983799379A3719
:101BB000D8900336023601369C37BAD79CA106D09E
:101BC000D8900132023203329C3302D0000635E055
:101BD0009CBF1ED0D8909737983799379A3796512F
:101BE000975F07E2010E985F04E2995F02E29A5F55
:101BF0001AE39551985F05E2010E995F02E29A5F40
:101C000012E394518009995F03E2010E9A5F0BE39E
:101C1000032A09E1022A07E1012A05E1002A0DE071
:101C200001320232033290C09BF094519B1B9BAF58
:101C300002D0018E06D0019E04D0006A016A026AB9
:101C4000036A000CA451B608A46F036AA5C0A8F0EB
:101C5000A58FD890A533A633A733033202320132C1
:101C60000032A42FF6D7A8AF0BD0001E011E021E13
:101C7000031E002AD8B4012AD8B4022AD8B4032AF1
:101C8000000C006A016A026A036AAC6BAD6BAE6B52
:101C9000AF6BAB51AA11A911A8112CE0200EB06FA7
:101CA000D890A437A537A637A737AC37AD37AE37AE
:101CB000AF37AB51AF5D08E1AA51AE5D05E1A95167
:101CC000AD5D02E1A851AC5D0FE3A851AC5FA95135
:101CD000D8A0A93DAD5FAA51D8A0AA3DAE5FAB5137
:101CE000D8A0AB3DAF5FD880003601360236033650
:101CF000B02FD6D7EA6AAC0EE96E000CE950916FAE
:101D00009051936F19E08FC0A7F08EC0A6F08DC0E0
:101D1000A5F08CC0A4F0AB6BAA6B200EA96F820E4D
:101D2000A86F35DD03C08FF002C08EF001C08DF0CA
:101D300000C08CF0932FE7D78FC0A7F08EC0A6F01D
:101D40008DC0A5F08CC0A4F07DDF03C08FF002C071
:101D50008EF001C08DF000C08CF08FAF0DD09107D8
:101D6000918B8C1F8D1F8E1F8F1F8C2BD8B48D2BAA
:101D7000D8B48E2BD8B48F2B3B0E986F9A0E976FDA
:101D8000CA0E966F956B0A0E936F9051D8B4912B33
:101D90008FC0A7F08EC0A6F08DC0A5F08CC0A4F0B7
:101DA00098C0ABF097C0AAF096C0A9F095C0A8F073
:101DB00068DF0150EFCF8CF0ECCF8DF0ECCF8EF0E0
:101DC000ECCF8FF000520FE19029935D0CE0915120
:101DD0000CE00F0B935D01E03BE291BF39D091BD68
:101DE00004D0200E30D0200E911791AB0DD0919BD6
:101DF0009051D8A491070050916F2D0E996F50EC1F
:101E000007F09151006E916B9051935D0BE1005082
:101E1000916F2E0E996F50EC07F09151006E200ECD
:101E20009117000E300E91AB0ED0919B9051D8A41B
:101E300091070050916F2D0E996F50EC07F0915162
:101E4000006E916B300E002600C099F050EC07F048
:101E500098C0A7F097C0A6F096C0A5F095C0A4F0D2
:101E6000AB6BAA6BA96B0A0EA86F0BDF03C098F0CF
:101E700002C097F001C096F000C095F0932F88D76C
:101E8000000C8CC093F09051931B93AF05D0D89465
:101E9000D8908CBFD8802FD08CC093F08FC094F096
:101EA0008B51945F06E093AF26D0D850010AD86ECC
:101EB00022D090C094F08C51945F06E093AF1BD079
:101EC000D850010AD86E17D091C094F08D51945F0C
:101ED00006E093AF10D0D850010AD86E0CD092C053
:101EE00094F08E51945F06E093AF05D0D850010A6C
:101EF000D86E01D0D890000C9151016A905D03E238
:101F000090C000F00CD0006A080E926F9037003637
:101F10009151005CD8B0006E0136922FF7D7000CBB
:101F200001508EC090F0640E916FE6DF00C08EF01D
:101F30000150300E07E18FA30DD08FB70BD08FB9B2
:101F4000200E03D08F978F998F81012601C099F0C1
:101F500050EC07F08EC090F00A0E916FCDDF00C0FC
:101F60008EF00150300E06E18FB709D08FA107D057
:101F70008FB9200E012601C099F050EC07F0300E09
:101F80008E278EC099F050EC07F0000C8C918B518D
:101F9000F80FD8B006D1080FD6EF10F08C8101D120
:101FA000960E9A6F11EC06F08C9101EC0BF0010E7D
:101FB0009A6F9B6F1BEC07F08D6B8D5111EC01F04C
:101FC0008D2B006E996F50EC07F0040E8D5DF5E1DE
:101FD0008BC08EF01B0E8F6FA3DF060E8E6F8E519F
:101FE00011EC01F08E2B006E996F50EC07F0150E7E
:101FF0008E5DF5E10F0E8D6F0CEC0BF0D2D0960ECE
:102000009A6F11EC06F08C9101EC0BF0010E9A6FB7
:102010009B6F1BEC07F08D6B8D5111EC01F08D2B3C
:10202000006E996F50EC07F0040E8D5DF5E18BC0EA
:102030008EF01B0E8F6F74DF060E8E6F8E5111ECBB
:1020400001F08E2B006E996F50EC07F0150E8E5D2F
:10205000F5E10F0E8D6F0CEC0BF0A3D0960E9A6F7E
:1020600011EC06F08C9101EC0BF0010E9A6F9B6F56
:102070001BEC07F08D6B8D5111EC01F08D2B006E78
:10208000996F50EC07F0040E8D5DF5E18BC08EF07A
:102090001B0E8F6F45DF060E8E6F8E5111EC01F017
:1020A0008E2B006E996F50EC07F0150E8E5DF5E1EA
:1020B0000F0E8D6F0CEC0BF074D0960E9A6F11EC26
:1020C00006F08C9101EC0BF0010E9A6F9B6F1BECEC
:1020D00007F08D6B8D512BEC01F08D2B006E996FFD
:1020E00050EC07F0160E8D5DF5E10F0E8D6F0CECC8
:1020F0000BF057D0960E9A6F11EC06F08C9101EC14
:102100000BF0010E9A6F9B6F1BEC07F08D6B8D51DE
:1021100046EC01F08D2B006E996F50EC07F0160E17
:102120008D5DF5E10F0E8D6F0CEC0BF03AD0960E35
:102130009A6F11EC06F08C9101EC0BF0010E9A6F86
:102140009B6F1BEC07F08D6B8D5161EC01F08D2BBB
:10215000006E996F50EC07F0160E8D5DF5E10F0ED5
:102160008D6F0CEC0BF01DD0960E9A6F11EC06F0F3
:102170008C9101EC0BF0010E9A6F9B6F1BEC07F03A
:102180008D6B8D517CEC01F08D2B006E996F50ECB6
:1021900007F0150E8D5DF5E10F0E8D6F0CEC0BF059
:1021A00000D0000E8CB1010E016E000CF2CF0EF0CB
:1021B000F29EE824F76AF736D70FF66E210EF72263
:1021C000000EF86EFB6E0A00F550FA6E0800F5502E
:1021D0000EBEF28EF96E9C1FA01FFE1F5C20BA205F
:1021E000F4202E216821E9509C6F9B519E6F1AE0CC
:1021F0009AC0A7F099C0A6F098C0A5F097C0A4F027
:10220000AB6BAA6B200EA96F820EA86FC7EC0BF008
:1022100003C09AF002C099F001C098F000C097F096
:102220009E2FE6D79AC0A7F099C0A6F098C0A5F057
:1022300097C0A4F007DD03C09AF002C099F001C076
:1022400098F000C097F09AAF0DD09C079C8B971F19
:10225000981F991F9A1F972BD8B4982BD8B4992BF5
:10226000D8B49A2B3B0EA36F9A0EA26FCA0EA16F21
:10227000A06B0A0E9E6F9B51D8B49C2B9AC0A7F0FE
:1022800099C0A6F098C0A5F097C0A4F0A3C0ABF089
:10229000A2C0AAF0A1C0A9F0A0C0A8F0F2DC015031
:1022A000EFCF97F0ECCF98F0ECCF99F0ECCF9AF01D
:1022B00000520FE19B299E5D0CE09C510CE00F0B3E
:1022C0009E5D01E03BE29CBF39D09CBD04D0200E56
:1022D00030D0200E9C179CAB0DD09C9B9B51D8A45A
:1022E0009C0700509C6F2D0E9EA8FED7AD6E9C5192
:1022F000006E9C6B9B519E5D0BE100509C6F2E0EFF
:102300009EA8FED7AD6E9C51006E200E9C17000E4D
:10231000300E9CAB0ED09C9B9B51D8A49C070050C8
:102320009C6F2D0E9EA8FED7AD6E9C51006E9C6BCF
:10233000300E002600509EA8FED7AD6EA3C0A7F0B9
:10234000A2C0A6F0A1C0A5F0A0C0A4F0AB6BAA6B80
:10235000A96B0A0EA86F95DC03C0A3F002C0A2F01F
:1023600001C0A1F000C0A0F09E2F88D7000C5B0E2A
:102370009EA8FED7AD6E890EE96E8EC09AF08DC014
:1023800099F08CC098F08BC097F0020E9B6F2BDFFA
:102390000D0E9EA8FED7AD6E5B0E9EA8FED7AD6E4D
:1023A000890EE96E92C09AF091C099F090C098F0B1
:1023B0008FC097F0020E9B6F16DF0D0E9EA8FED702
:1023C000AD6E5B0E9EA8FED7AD6E890EE96E96C00F
:1023D0009AF095C099F094C098F093C097F0020ECF
:1023E0009B6F01DF0D0E9EA8FED7AD6E93EF15F02B
:1023F000899772EC07F08986020E8B6FFA0E9A6F3E
:1024000011EC06F08B2FFAD7899189938995606B2F
:102410005F6A5E6A5D6A646B636B626B616B686B5B
:10242000676B666B656B6C6B6B6B6A6B696B706B08
:102430006F6B6E6B6D6B746B736B726B716B786BB8
:10244000776B766B756B7C6B7B6B7A6B796B806B68
:102450007F6B7E6B7D6B8A6B8A511308D8A0EFD09F
:10246000000E016EC250C30B0110C26E420E006E10
:10247000002EFED70000C282C2B2FED7C4CF03F046
:10248000C3CF8BF0C4CF8CF0ACEC0BF003C060F08A
:1024900002C05FF001C05EF000C05DF060C0A7F058
:1024A0005FC0A6F05EC0A5F05DC0A4F0EC0EAB6FFF
:1024B000510EAA6F200EA96F770EA86FC7EC0BF014
:1024C000D8926CC092F06BC091F06AC090F069C075
:1024D0008FF003C096F002C095F001C094F000C0E8
:1024E00093F040EC0CF003C06CF002C06BF001C044
:1024F0006AF000C069F0050E9A6F11EC06F0040E48
:10250000016EC250C30B0110C26E420E006E002E4F
:10251000FED70000C282C2B2FED7C4CF03F0C3CF41
:102520008BF0C4CF8CF0ACEC0BF003C064F002C0B5
:1025300063F001C062F000C061F064C0A7F063C046
:10254000A6F062C0A5F061C0A4F0EC0EAB6F510E16
:10255000AA6F200EA96F770EA86FC7EC0BF0D89268
:1025600070C092F06FC091F06EC090F06DC08FF0AF
:1025700003C096F002C095F001C094F000C093F043
:1025800040EC0CF003C070F002C06FF001C06EF0C0
:1025900000C06DF0050E9A6F11EC06F0080E016E8A
:1025A000C250C30B0110C26E420E006E002EFED749
:1025B0000000C282C2B2FED7C4CF03F0C3CF8BF0FB
:1025C000C4CF8CF0ACEC0BF003C068F002C067F035
:1025D00001C066F000C065F068C0A7F067C0A6F053
:1025E00066C0A5F065C0A4F0EC0EAB6F510EAA6FEB
:1025F000200EA96F770EA86FC7EC0BF0D89274C0AD
:1026000092F073C091F072C090F071C08FF003C06F
:1026100096F002C095F001C094F000C093F040EC39
:102620000CF003C074F002C073F001C072F000C07F
:1026300071F0050E9A6F11EC06F08A2B0DD76CC065
:1026400092F06BC091F06AC090F069C08FF0966B09
:10265000956B200E946F830E936F75EC0DF003C095
:102660006CF002C06BF001C06AF000C069F0D88263
:10267000926B916B200E906F810E8F6F6CC096F0F5
:102680006BC095F06AC094F069C093F040EC0CF018
:1026900000C08BF001C08CF002C08DF003C08EF042
:1026A00003C092F002C091F001C090F000C08FF022
:1026B000966B956B480E946F850E936F75EC0DF0CD
:1026C00003C084F002C083F001C082F000C081F03A
:1026D0006CC092F06BC091F06AC090F069C08FF04E
:1026E00084C096F083C095F082C094F081C093F0CE
:1026F00075EC0DF003C078F002C077F001C076F001
:1027000000C075F070C092F06FC091F06EC090F094
:102710006DC08FF0966B956B200E946F830E936F48
:1027200075EC0DF003C070F002C06FF001C06EF0E8
:1027300000C06DF0D882926B916B200E906F810E6D
:102740008F6F70C096F06FC095F06EC094F06DC042
:1027500093F040EC0CF000C08BF001C08CF002C094
:102760008DF003C08EF003C092F002C091F001C062
:1027700090F000C08FF0966B956B480E946F850EAD
:10278000936F75EC0DF003C084F002C083F001C0BC
:1027900082F000C081F070C092F06FC091F06EC006
:1027A00090F06DC08FF084C096F083C095F082C029
:1027B00094F081C093F075EC0DF003C07CF002C082
:1027C0007BF001C07AF000C079F074C092F073C061
:1027D00091F072C090F071C08FF0966B956B200EE7
:1027E000946F830E936F75EC0DF003C074F002C00C
:1027F00073F001C072F000C071F0D882926B916BDF
:10280000200E906F810E8F6F74C096F073C095F09C
:1028100072C094F071C093F040EC0CF000C08BF0EB
:1028200001C08CF002C08DF003C08EF003C092F0A6
:1028300002C091F001C090F000C08FF0966B956BD4
:10284000480E946F850E936F75EC0DF003C088F001
:1028500002C087F001C086F000C085F074C092F01D
:1028600073C091F072C090F071C08FF088C096F084
:1028700087C095F086C094F085C093F075EC0DF09C
:1028800000C08BF001C08CF002C08DF003C08EF050
:10289000D88203C092F002C091F001C090F000C055
:1028A0008FF0966B956B946B800E936F40EC0CF0F1
:1028B00003C080F002C07FF001C07EF000C07DF058
:1028C000640E9A6F11EC06F0010E9A6F020E9B6F68
:1028D0001BEC07F08B6B8B5196EC01F08B2B006E91
:1028E000996F50EC07F0060E8B5DF5E1890EE96EED
:1028F00078C08FF077C08EF076C08DF075C08CF008
:10290000020E906F7EEC0EF0010E9A6F030E9B6F1D
:102910001BEC07F08B6B8B51AAEC01F08B2B006E3C
:10292000996F50EC07F0060E8B5DF5E1890EE96EAC
:102930007CC08FF07BC08EF07AC08DF079C08CF0B7
:10294000020E906F7EEC0EF0010E9A6F040E9B6FDC
:102950001BEC07F08B6B8B51BEEC01F08B2B006EE8
:10296000996F50EC07F0060E8B5DF5E1890EE96E6C
:1029700080C08FF07FC08EF07EC08DF07DC08CF067
:10298000020E906F7EEC0EF01FC08CF01EC08BF01C
:10299000ACEC0BF003C08EF002C08DF001C08CF0E7
:1029A00000C08BF078C092F077C091F076C090F0C4
:1029B00075C08FF041EC0FF001E21CE11DC08CF0FE
:1029C0001CC08BF0ACEC0BF078C08EF077C08DF0B3
:1029D00076C08CF075C08BF003C092F002C091F00D
:1029E00001C090F000C08FF041EC0FF001E202E175
:1029F000898101D0899123C08CF022C08BF0ACEC8E
:102A00000BF003C08EF002C08DF001C08CF000C04E
:102A10008BF07CC092F07BC091F07AC090F079C0CE
:102A20008FF041EC0FF001E21CE121C08CF020C0DE
:102A30008BF0ACEC0BF07CC08EF07BC08DF07AC0DC
:102A40008CF079C08BF003C092F002C091F001C00D
:102A500090F000C08FF041EC0FF001E202E18983B9
:102A600001D0899327C08CF026C08BF0ACEC0BF022
:102A700003C08EF002C08DF001C08CF000C08BF05E
:102A800080C092F07FC091F07EC090F07DC08FF04A
:102A900041EC0FF001E21CE125C08CF024C08BF06A
:102AA000ACEC0BF080C08EF07FC08DF07EC08CF05F
:102AB0007DC08BF003C092F002C091F001C090F095
:102AC00000C08FF041EC0FF001E202E1898501D0F6
:102AD00089958996640E9A6F11EC06F089A124D02D
:102AE00089A322D089A520D08B6BC6EC0FF08997E3
:102AF00001B0898778C08EF077C08DF076C08CF0F9
:102B000075C08BF07CC092F07BC091F07AC090F0E1
:102B100079C08FF080C096F07FC095F07EC094F0B1
:102B20007DC093F024D461D089B10CD089A30AD0A0
:102B300089A508D0010E8B6FC6EC0FF0899701B004
:102B4000898753D089A10CD089B30AD089A508D030
:102B5000020E8B6FC6EC0FF0899701B0898745D0C4
:102B600089A10CD089A30AD089B508D0030E8B6F38
:102B7000C6EC0FF0899701B0898737D089B10CD0A6
:102B800089B30AD089A508D0040E8B6FC6EC0FF06C
:102B9000899701B0898729D089B10CD089A30AD03F
:102BA00089B508D0050E8B6FC6EC0FF0899701B080
:102BB00089871BD089A10CD089B30AD089B508D0E8
:102BC000060E8B6FC6EC0FF0899701B089870DD088
:102BD00089B10BD089B309D089B507D0070E8B6FA7
:102BE000C6EC0FF0899701B08987606B5F6A5E6AF7
:102BF0005D6A646B636B626B616B686B676B666B62
:102C0000656B6C6B6B6B6A6B696B706B6F6B6E6B10
:102C10006D6B746B736B726B716B786B776B766BC0
:102C2000756B7C6B7B6B7A6B796B806B7F6B7E6B70
:102C30007D6B000E89B7010E016E000C84BE02D0C0
:102C400095988C88566A556A5650070810E303E138
:102C50005550CF080CE386B002D05D8013D0010E32
:102C60009A6F11EC06F0552AD8B4562AEDD75D902C
:102C7000E0EC0AF001EC0BF00F0E8D6F0CEC0BF09A
:102C800095988C98000E5DB0010E016E000C86B612
:102C900002D0959A8C8A566A556A5650070810E3F6
:102CA00003E15550CF080CE386A602D05D8013D017
:102CB000010E9A6F11EC06F0552AD8B4562AEDD7BA
:102CC0005D90E0EC0AF001EC0BF00F0E8D6F0CEC58
:102CD0000BF0959A8C9A000E5DB0010E016E000CFF
:102CE00086B00AD086A608D082B406D081BA04D0B5
:102CF00085B202D095908C80566A556A5650070866
:102D000018E303E15550CF0814E386B00AD086A635
:102D100008D082B406D081BA04D085B002D05D80DC
:102D200013D0010E9A6F11EC06F0552AD8B4562A2A
:102D3000E5D75D90E0EC0AF001EC0BF00F0E8D6F23
:102D40000CEC0BF095908C90000E5DB0010E016EB6
:102D5000000C81BA02D095948C94566A556A5650EC
:102D6000070810E303E15550CF080CE381B802D007
:102D70005D8013D0010E9A6F11EC06F0552AD8B47D
:102D8000562AEDD75D90E0EC0AF001EC0BF00F0E47
:102D90008D6F0CEC0BF095948C84000E5DB0010EE1
:102DA000016E000C81B802D095948C84566A556AE5
:102DB0005650070810E303E15550CF080CE381BAE1
:102DC00002D05D8013D0010E9A6F11EC06F0552AE7
:102DD000D8B4562AEDD75D90E0EC0AF001EC0BF088
:102DE0000F0E8D6F0CEC0BF095948C94000E5DB073
:102DF000010E016E000C82B402D095968C96566A34
:102E0000556A5650070810E303E15550CF080CE30C
:102E100082B202D05D8013D0010E9A6F11EC06F0E1
:102E2000552AD8B4562AEDD75D90E0EC0AF001ECB3
:102E30000BF00F0E8D6F0CEC0BF095968C86000E40
:102E40005DB0010E016E000C82B202D095968C86A8
:102E5000566A556A5650070810E303E15550CF08EB
:102E60000CE382B402D05D8013D0010E9A6F11EC96
:102E700006F0552AD8B4562AEDD75D90E0EC0AF05A
:102E800001EC0BF00F0E8D6F0CEC0BF095968C9601
:102E9000000E5DB0010E016E000C81B602D095925D
:102EA0008C92566A556A5650070810E303E1555054
:102EB000CF080CE381B402D05D8013D0010E9A6F6D
:102EC00011EC06F0552AD8B4562AEDD75D90E0EC07
:102ED0000AF001EC0BF00F0E8D6F0CEC0BF09592DD
:102EE0008C82000E5DB0010E016E000C81B402D028
:102EF00095928C82566A556A5650070810E303E192
:102F00005550CF080CE381B602D05D8013D0010E7E
:102F10009A6F11EC06F0552AD8B4562AEDD75D9079
:102F2000E0EC0AF001EC0BF00F0E8D6F0CEC0BF0E7
:102F300095928C92000E5DB0010E016E000C700E29
:102F40005E6E56EC08F001C02AF02A50780A0FE0B5
:102F5000A00A5BE0600AD8B489D0500AD8B4B7D0D0
:102F6000180AD8B4E6D0AF0AD8B42BD13BD1C80EDA
:102F70009A6F11EC06F02A50780807E1700E5E6E29
:102F800056EC08F001C02AF0F6D786B01DD081BA01
:102F90001BD081B619D082B417D085B015D02AECD9
:102FA0000BF0012C10D0030E5D6EFA0E9A6F11EC2F
:102FB00006F05D2EFAD760EC0BF0012C04D086EC05
:102FC0000BF0F8EC11F020D084BE18D081BA16D0E6
:102FD00081B614D082B412D085B210D02FDE012C6D
:102FE0000CD055DE012C09D0030E5D6EFA0E9A6FDF
:102FF00011EC06F05D2EFAD773DE06D0E0EC0AF095
:103000000A0E8D6F0CEC0BF0EDD0C80E9A6F11EC20
:1030100006F02A50D80807E1700E5E6E56EC08F0F4
:1030200001C02AF0F6D786B00CD081BA0AD081B69A
:1030300008D082B406D086A604D085B002D089DE3E
:1030400014D086B00CD081B80AD081B608D082B432
:1030500006D086A604D085B002D0A4DE06D0E0EC6F
:103060000AF00A0E8D6F0CEC0BF0BCD0C80E9A6FF4
:1030700011EC06F02A50B80807E1700E5E6E56ECAF
:1030800008F001C02AF0F6D786B00CD081BA0AD079
:1030900081B608D082B406D086A604D085B002D00E
:1030A000AADE14D086B00CD081BA0AD081B608D07E
:1030B00082B206D086A604D085B002D0C5DE06D086
:1030C000E0EC0AF00A0E8D6F0CEC0BF08BD0C80E02
:1030D0009A6F11EC06F02A50E80807E1700E5E6E58
:1030E00056EC08F001C02AF0F6D786B00DD081BAB0
:1030F0000BD081B609D082B407D086A605D085B0A2
:1031000003D02AEC0BF014D086B00CD081BA0AD0D0
:1031100081B608D082B406D086A604D085B202D08B
:10312000DFDD06D0E0EC0AF00A0E8D6F0CEC0BF040
:1031300059D0C80E9A6F11EC06F02A50F00807E13A
:10314000700E5E6E56EC08F001C02AF0F6D786B01D
:1031500018D081BA16D081B614D082B412D086A607
:1031600010D085B00ED02AEC0BF0012C09D0050E42
:103170005D6E6E0E9A6F11EC06F05D2EFAD78DDE45
:103180001FD086B017D081BA15D081B413D082B4C5
:1031900011D086A60FD085B20DD0A8DE012C09D0A3
:1031A000020E5D6EAF0E9A6F11EC06F05D2EFAD72F
:1031B00097DD06D0E0EC0AF00A0E8D6F0CEC0BF0F8
:1031C00011D0C80E9A6F11EC06F02A505F0807E183
:1031D000700E5E6E56EC08F001C02AF0F6D7010EB4
:1031E0001B6E00D07BEF24F08D92040E5D6EFA0E04
:1031F0009A6F11EC06F05D2EFAD78D827D0E9A6FD4
:1032000011EC06F0E3EF1FF08D92640E9A6F11EC53
:1032100006F08D82190E9A6F11EC06F0000C5E6AB2
:103220005E5001080CE38D92640E9A6F11EC06F06B
:103230008D82190E9A6F11EC06F05E2AF1D78D92ED
:10324000020E5F6E870E9A6F11EC06F05F2EFAD7B2
:103250008D82500E9A6F11EC06F08D92640E9A6F6B
:1032600011EC06F08D82190E9A6F11EC06F0000C2D
:10327000010E9A6F9B6F1BEC07F05F6A5F50A6EC24
:1032800003F05F2A006E996F50EC07F0140E5F5C3C
:10329000F5E1010E9A6F030E9B6F1BEC07F05F6A5E
:1032A0005F50F7EC00F05F2A006E996F50EC07F06A
:1032B000140E5F5CF5E1010E9A6F040E9B6F1BEC20
:1032C00007F05F6A5F50F7EC00F05F2A006E996FBD
:1032D00050EC07F0140E5F5CF5E1640E9A6F11EC90
:1032E00006F05E50010A03E0030A2FE05CD0AA6AF0
:1032F000460EA96E010EA86EA69CA69EA684F2CFCD
:1033000000F0F29E0F01550EA76EAA0EA76EA682C0
:10331000A6B2FED7A6940050F212010E00019A6FD9
:1033200011EC06F0010E9A6F020E9B6F1BEC07F07A
:103330005F6A5F50C0EC03F05F2A006E996F50EC3B
:1033400007F0140E5F5CF5E15CD0AA6A460EA96E28
:10335000020EA86EA69CA69EA684F2CF00F0F29E56
:103360000F01550EA76EAA0EA76EA682A6B2FED7B3
:10337000A6940050F212010E00019A6F11EC06F0B3
:10338000010E9A6F020E9B6F1BEC07F05F6A5F5095
:10339000DAEC03F05F2A006E996F50EC07F0140E20
:1033A0005F5CF5E12ED0AA6A460EA96E010EA86EEA
:1033B000A69CA69EA684F2CF00F0F29E0F01550EA9
:1033C000A76EAA0EA76EA682A6B2FED7A69400503C
:1033D000F212010E00019A6F11EC06F0010E9A6FC5
:1033E000020E9B6F1BEC07F05F6A5F50C0EC03F0AE
:1033F0005F2A006E996F50EC07F0140E5F5CF5E1E8
:1034000000D0080E5F6EFA0E9A6F11EC06F05F2E78
:10341000FAD7BFEF1AF05D90700E5E6E56EC08F0B2
:1034200001C02AF02A50F70848E1640E9A6F11ECA7
:1034300006F02A50F70807E1700E5E6E56EC08F0B1
:1034400001C02AF0F6D7010E296E5D909A6F020E28
:103450009B6F1BEC07F05E6A5E503EEC03F05E2A49
:10346000006E996F50EC07F0140E5E5CF5E1010EF2
:103470009A6F030E9B6F1BEC07F05E6A5E5058EC70
:1034800003F05E2A006E996F50EC07F0140E5E5C3C
:10349000F5E1010E9A6F040E9B6F1BEC07F05E6A5C
:1034A0005E50F7EC00F05E2A006E996F50EC07F06A
:1034B000140E5E5CF5E1A8DE62D02A50EF0849E107
:1034C000640E9A6F11EC06F02A50EF0807E1700EB7
:1034D0005E6E56EC08F001C02AF0F6D7020E296E97
:1034E0005D90010E9A6F020E9B6F1BEC07F05E6AF7
:1034F0005E5072EC03F05E2A006E996F50EC07F09C
:10350000140E5E5CF5E1010E9A6F030E9B6F1BECCF
:1035100007F05E6A5E508CEC03F05E2A006E996FD5
:1035200050EC07F0140E5E5CF5E1010E9A6F040E8C
:103530009B6F1BEC07F05E6A5E50F7EC00F05E2AB2
:10354000006E996F50EC07F0140E5E5CF5E15CDEE6
:1035500016D02A507F0813E1640E9A6F11EC06F022
:103560002A507F0807E1700E5E6E56EC08F001C02D
:103570002AF0F6D75D8053DE29C05EF079D6000EC2
:103580005DB0010E016E57EF1BF019901994010EFA
:103590009A6F9B6F1BEC07F05D6A5D5024EC03F0A3
:1035A0005D2A006E996F50EC07F0140E5D5CF5E13A
:1035B000576A5750020836E3010E9A6F9B6F1BEC57
:1035C00007F05D6A5D50F7EC00F05D2A006E00C008
:1035D00099F050EC07F0140E5D5CF4E1020E5D6EA4
:1035E000AF0E9A6F11EC06F05D2EFAD7010E9A6FAE
:1035F0009B6F1BEC07F05D6A5D5024EC03F05D2AC5
:10360000006E00C099F050EC07F0140E5D5CF4E120
:10361000020E5D6EAF0E9A6F11EC06F05D2EFAD7BA
:10362000572AC7D7010E9A6F020E9B6F1BEC07F04B
:103630005D6A5D503EEC03F05D2A006E996F50ECC0
:1036400007F0140E5D5CF5E1320E9A6F11EC06F096
:10365000010E9A6F030E9B6F1BEC07F05D6A5D50C5
:1036600058EC03F05D2A006E996F50EC07F0140ED1
:103670005D5CF5E1010E9A6F040E9B6F1BEC07F089
:103680005D6A5D50F7EC00F05D2A006E996F50ECBA
:1036900007F0140E5D5CF5E10A0E5D6E820E9A6F06
:1036A00011EC06F05D2EFAD719B405D0B4D61994F2
:1036B00001B01984F9D7050E5D6EF00E9A6F11EC0A
:1036C00006F05D2EFAD7198019949BEF21F0010EB8
:1036D0009A6F9B6F1BEC07F0606B605196EC04F0E7
:1036E000602B006E996F50EC07F0140E605DF5E1F1
:1036F000010E9A6F020E9B6F1BEC07F0606B60511E
:10370000B0EC04F0602B006E996F50EC07F0140ED3
:10371000605DF5E1010E9A6F030E9B6F1BEC07F0E5
:10372000606B6051CAEC04F0602B006E996F50EC36
:1037300007F0120E605DF5E1010E9A6F040E9B6FAB
:103740001BEC07F0606B6051CAEC04F0602B006E5C
:10375000996F50EC07F0120E605DF5E1AA6A0A0E4F
:10376000A96E1CC0A8FFA69CA69EA684F2CF00F05E
:10377000F29E0F01550EA76EAA0EA76EA682A6B2E4
:10378000FED7A6940050F212010E00019A6F11ECC0
:1037900006F0AA6A140EA96E1EC0A8FFA69CA69EDB
:1037A000A684F2CF00F0F29E0F01550EA76EAA0E6E
:1037B000A76EA682A6B2FED7A6940050F212010E02
:1037C00000019A6F11EC06F0AA6A1E0EA96E20C0C5
:1037D000A8FFA69CA69EA684F2CF00F0F29E0F0141
:1037E000550EA76EAA0EA76EA682A6B2FED7A69405
:1037F0000050F212010E00019A6F11EC06F0AA6A55
:10380000280EA96E22C0A8FFA69CA69EA684F2CF71
:1038100000F0F29E0F01550EA76EAA0EA76EA682AB
:10382000A6B2FED7A6940050F212010E00019A6FC4
:1038300011EC06F0AA6A320EA96E24C0A8FFA69C5D
:10384000A69EA684F2CF00F0F29E0F01550EA76E41
:10385000AA0EA76EA682A6B2FED7A6940050F212B8
:10386000010E00019A6F11EC06F0AA6A3C0EA96ED7
:1038700026C0A8FFA69CA69EA684F2CF00F0F29ECA
:103880000F01550EA76EAA0EA76EA682A6B2FED78E
:10389000A6940050F212010E00019A6F11EC06F08E
:1038A0005E6A5E50020835E30E0E5F6E5F501008D0
:1038B00014E35FC09AF0020E9B6F1BEC07F02E0E14
:1038C000996F50EC07F0020E606FAF0E9A6F11EC1B
:1038D00006F0602FFAD75F2AE9D70E0E9A6F020E14
:1038E0009B6F1BEC07F0606B6051E3EC04F0602B06
:1038F000006E996F50EC07F0070E605DF5E1020E67
:10390000606FAF0E9A6F11EC06F0602FFAD75E2A47
:10391000C8D7010E9A6F030E9B6F1BEC07F0606B0C
:103920006051F6EC04F0602B006E996F50EC07F0DC
:10393000140E605DF5E1010E9A6F040E9B6F1BEC97
:1039400007F0606B6051F7EC00F0602B006E996F30
:1039500050EC07F0140E605DF5E10A0E606F820E08
:103960009A6F11EC06F0602FFAD7F0EF1EF05D9021
:10397000700E5E6E56EC08F001C02AF02A50F7086F
:1039800029E1640E9A6F11EC06F02A50F70807E15E
:10399000700E5E6E56EC08F001C02AF0F6D734DCEB
:1039A0001D5203E11C50FE0802E21D6A1C6A1C2A1B
:1039B000D8B41D2A060E9A6F020E9B6F1BEC07F0FF
:1039C0000B0EE96E1DC060F01CC05FF07BEC08F0D0
:1039D0005D9087D02A50EF082AE1640E9A6F11ECAF
:1039E00006F02A50EF0807E1700E5E6E56EC08F004
:1039F00001C02AF0F6D708DC1C5205E11D5203E194
:103A0000010E1D6E1C6A1C50D8B41D061C06060E45
:103A10009A6F020E9B6F1BEC07F00B0EE96E1DC038
:103A200060F01CC05FF07BEC08F05D905AD02A502B
:103A3000F3082AE1640E9A6F11EC06F02A50F3089D
:103A400007E1700E5E6E56EC08F001C02AF0F6D762
:103A500004EC19F01F5203E11E50FE0802E21F6A37
:103A60001E6A1E2AD8B41F2A100E9A6F020E9B6F70
:103A70001BEC07F00B0EE96E1FC060F01EC05FF07C
:103A80007BEC08F05D902DD02A50EB082AE1640E03
:103A90009A6F11EC06F02A50EB0807E1700E5E6E8B
:103AA00056EC08F001C02AF0F6D704EC19F01E52CB
:103AB00005E11F5203E1010E1F6E1E6A1E50D8B4AD
:103AC0001F061E06100E9A6F020E9B6F1BEC07F06E
:103AD0000B0EE96E1FC060F01EC05FF07BEC08F0BB
:103AE0005D902A50F5082AE1640E9A6F11EC06F0F9
:103AF0002A50F50807E1700E5E6E56EC08F001C022
:103B00002AF0F6D704EC19F0215203E12050FE0808
:103B100002E2216A206A202AD8B4212A060E9A6F6E
:103B2000030E9B6F1BEC07F00B0EE96E21C060F0DB
:103B300020C05FF07BEC08F05D9088D02A50ED0843
:103B40002BE1640E9A6F11EC06F02A50ED0807E1A4
:103B5000700E5E6E56EC08F001C02AF0F6D704EC49
:103B600019F0205205E1215203E1010E216E206A75
:103B70002050D8B421062006060E9A6F030E9B6FC4
:103B80001BEC07F00B0EE96E21C060F020C05FF067
:103B90007BEC08F05D905AD02A50F1082AE1640EBF
:103BA0009A6F11EC06F02A50F10807E1700E5E6E74
:103BB00056EC08F001C02AF0F6D704EC19F02352B5
:103BC00003E12250FE0802E2236A226A222AD8B4C4
:103BD000232A100E9A6F030E9B6F1BEC07F00B0E3F
:103BE000E96E23C060F022C05FF07BEC08F05D90CE
:103BF0002DD02A50E9082AE1640E9A6F11EC06F0E4
:103C00002A50E90807E1700E5E6E56EC08F001C01C
:103C10002AF0F6D704EC19F0225205E1235203E111
:103C2000010E236E226A2250D8B423062206100EFB
:103C30009A6F030E9B6F1BEC07F00B0EE96E23C00F
:103C400060F022C05FF07BEC08F05D902A50F6082F
:103C50002AE1640E9A6F11EC06F02A50F60807E18B
:103C6000700E5E6E56EC08F001C02AF0F6D704EC38
:103C700019F0255203E12450FE0802E2256A246A65
:103C8000242AD8B4252A060E9A6F040E9B6F1BECCB
:103C900007F00B0EE96E25C060F024C05FF07BECEE
:103CA00008F05D909ED02A50EE082BE1640E9A6FCA
:103CB00011EC06F02A50EE0807E1700E5E6E56EC2D
:103CC00008F001C02AF0F6D704EC19F0245205E1FF
:103CD000255203E1010E256E246A2450D8B425062E
:103CE0002406060E9A6F040E9B6F1BEC07F00B0E5A
:103CF000E96E25C060F024C05FF07BEC08F05D90B9
:103D000070D02A50F2082AE1640E9A6F11EC06F086
:103D10002A50F20807E1700E5E6E56EC08F001C002
:103D20002AF0F6D704EC19F0275203E12650FE08DA
:103D300002E2276A266A262AD8B4272A100E9A6F2A
:103D4000040E9B6F1BEC07F00B0EE96E27C060F0B2
:103D500026C05FF07BEC08F05D9043D02A50EA0863
:103D60002BE1640E9A6F11EC06F02A50EA0807E185
:103D7000700E5E6E56EC08F001C02AF0F6D704EC27
:103D800019F0265205E1275203E1010E276E266A3B
:103D90002650D8B427062606100E9A6F040E9B6F85
:103DA0001BEC07F00B0EE96E27C060F026C05FF039
:103DB0007BEC08F05D9015D02A507F0812E1640E6C
:103DC0009A6F11EC06F02A507F0807E1700E5E6EC4
:103DD00056EC08F001C02AF0F6D70FEC19F077D4B2
:103DE0005D80000E5DB0010E016EBEEF1FF01990F8
:103DF0001994010E9A6F9B6F1BEC07F05D6A5D5082
:103E000028EC04F05D2A006E996F50EC07F0140E58
:103E10005D5CF5E1640E9A6F11EC06F0010E9A6F8D
:103E2000020E9B6F1BEC07F05D6A5D5042EC04F0E4
:103E30005D2A006E996F50EC07F0050E5D5CF5E1B0
:103E40000B0EE96E1DC060F01CC05FF07BEC08F04B
:103E50000A0E5E6E5E5042EC04F05E2A006E996FB0
:103E600050EC07F0110E5E5CF5E10B0EE96E1FC021
:103E700060F01EC05FF07BEC08F0200E996F50ECF4
:103E800007F0200E996F50EC07F0010E9A6F030EA9
:103E90009B6F1BEC07F05D6A5D505EEC04F05D2AE1
:103EA000006E996F50EC07F0050E5D5CF5E10B0EAE
:103EB000E96E21C060F020C05FF07BEC08F00A0ED4
:103EC0005E6E5E505EEC04F05E2A006E996F50EC00
:103ED00007F0110E5E5CF5E10B0EE96E23C060F099
:103EE00022C05FF07BEC08F0200E996F50EC07F0D9
:103EF000200E996F50EC07F0010E9A6F040E9B6F25
:103F00001BEC07F05D6A5D507AEC04F05D2A006EF0
:103F1000996F50EC07F0050E5D5CF5E10B0EE96E54
:103F200025C060F024C05FF07BEC08F00A0E5E6EE6
:103F30005E507AEC04F05E2A006E996F50EC07F048
:103F4000110E5E5CF5E10B0EE96E27C060F026C035
:103F50005FF07BEC08F0200E996F50EC07F0200E1C
:103F6000996F50EC07F00A0E5D6E820E9A6F11EC9D
:103F700006F05D2EFAD719B405D0F9D4199401B022
:103F80001984F9D7060E5D6EFA0E9A6F11EC06F0E1
:103F90005D2EFAD7198019949BEF21F0FF0E2A6E3F
:103FA000010E9A6F9B6F1BEC07F05D6A5D5020EC71
:103FB00002F05D2A006E996F50EC07F0140E5D5C04
:103FC000F5E1F4EF18F080EC0AF0576A5750020858
:103FD00036E3010E9A6F9B6F1BEC07F05D6A5D5034
:103FE000F7EC00F05D2A006E00C099F050EC07F08D
:103FF000140E5D5CF4E1020E5D6E960E9A6F11EC8C
:1040000006F05D2EFAD7010E9A6F9B6F1BEC07F03E
:104010005D6A5D5020EC02F05D2A006E00C099F0F0
:1040200050EC07F0140E5D5CF4E1020E5D6E960E2E
:104030009A6F11EC06F05D2EFAD7572AC7D7010EFA
:104040009A6F020E9B6F1BEC07F05D6A5D503AECB5
:1040500002F05D2A006E996F50EC07F0140E5D5C63
:10406000F5E1010E9A6F030E9B6F1BEC07F05D6A82
:104070005D5054EC02F05D2A006E996F50EC07F031
:10408000140E5D5CF5E1010E9A6F040E9B6F1BEC44
:1040900007F05D6A5D506EEC02F05D2A006E996F6C
:1040A00050EC07F0140E5D5CF5E1050E5D6EDC0E64
:1040B0009A6F11EC06F05D2EFAD72A507F08D8B41B
:1040C000F5D0700E5E6E56EC08F001C02AF02A5052
:1040D000F7084CE1640E9A6F11EC06F02A50F708CD
:1040E00007E1700E5E6E56EC08F001C02AF0F6D7BC
:1040F000010E586E9A6F020E9B6F1BEC07F05D6A03
:104100005D503AEC02F05D2A006E996F50EC07F0BA
:10411000140E5D5CF5E1010E9A6F030E9B6F1BECB4
:1041200007F05D6A5D5054EC02F05D2A006E996FF5
:1041300050EC07F0140E5D5CF5E1010E9A6F040E71
:104140009B6F1BEC07F05D6A5D506EEC02F05D2A20
:10415000006E996F50EC07F0140E5D5CF5E10A0EED
:104160009A6F11EC06F004EC19F09FD02A50EF087A
:104170004DE1640E9A6F11EC06F02A50EF0807E14A
:10418000700E5E6E56EC08F001C02AF0F6D7020EF3
:10419000586E010E9A6F020E9B6F1BEC07F05D6A62
:1041A0005D5088EC02F05D2A006E996F50EC07F0CC
:1041B000140E5D5CF5E1010E9A6F030E9B6F1BEC14
:1041C00007F05D6A5D50A2EC02F05D2A006E996F07
:1041D00050EC07F0140E5D5CF5E1010E9A6F040ED1
:1041E0009B6F1BEC07F05D6A5D506EEC02F05D2A80
:1041F000006E996F50EC07F0140E5D5CF5E10A0E4D
:104200009A6F11EC06F004EC19F04FD02A50DF0839
:104210004CE1640E9A6F11EC06F02A50DF0807E1BA
:10422000700E5E6E56EC08F001C02AF0F6D7030E51
:10423000586E010E9A6F020E9B6F1BEC07F05D6AC1
:104240005D5088EC02F05D2A006E996F50EC07F02B
:10425000140E5D5CF5E1010E9A6F030E9B6F1BEC73
:1042600007F05D6A5D5054EC02F05D2A006E996FB4
:1042700050EC07F0140E5D5CF5E1010E9A6F040E30
:104280009B6F1BEC07F05D6A5D50BCEC02F05D2A91
:10429000006E996F50EC07F0140E5D5CF5E10A0EAC
:1042A0009A6F11EC06F004EC19F007D7FF0E2A6E96
:1042B000020E5D6EAF0E9A6F11EC06F05D2EFAD70E
:1042C00080EC0AF05850010A05E0030A1AE0010ADE
:1042D0001AE01AD0D6EC09F0960E9A6F11EC06F09F
:1042E000700E5E6E56EC08F001C02AF02A507F086E
:1042F00007E0700E5E6E56EC08F001C02AF0F6D7AB
:104300001AD0C5EF1AF073D5D6EC09F0960E9A6F55
:1043100011EC06F0700E5E6E56EC08F001C02AF04B
:104320002A507F0807E0700E5E6E56EC08F001C060
:104330002AF0F6D700D0000C5D902950010A03E066
:10434000030A3BE03CD085B408D085B606D085B8DA
:1043500004D085BA02D05D802FD072EC07F0640ED5
:104360009A6F11EC06F001EC0BF0010E9A6F9B6F47
:104370001BEC07F05E6A5E50D2EC01F05E2A006E24
:10438000996F50EC07F0150E5E5CF5E1010E9A6F27
:104390009B6F1BEC07F05E6A5E50ECEC01F05E2A4E
:1043A000006E996F50EC07F0150E5E5CF5E10A0E99
:1043B0008D6F0CEC0BF05D9004D05D8002D05D80C1
:1043C00000D0000E5DB0010E016EDAEF22F08D9488
:1043D000640E9A6F11EC06F08D86640E9A6F11ECE4
:1043E00006F0E5EF22F086B008D086A606D082B4AB
:1043F00004D081BA02D095908C80566A556A565086
:10440000070816E303E15550CF0812E386B008D041
:1044100086A606D082B404D081BA02D05D8013D0C3
:10442000010E9A6F11EC06F0552AD8B4562AE7D738
:104430005D90E0EC0AF001EC0BF00F0E8D6F0CECD0
:104440000BF095908C90000E5DB0010E016E80EF28
:1044500022F086B008D086A606D082B404D081BAF5
:1044600002D095908C90566A556A5650070816E30C
:1044700003E15550CF0812E386B008D086A606D0D7
:1044800082B404D081BA02D05D8013D0010E9A6F3D
:1044900011EC06F0552AD8B4562AE7D75D90E0EC27
:1044A0000AF001EC0BF00F0E8D6F0CEC0BF09590F9
:1044B0008C80000E5DB0010E016E93EF22F08B90A8
:1044C000FA0E9A6F11EC06F08B800A0E9A6F11ECBF
:1044D00006F0B4EF22F02AEC0BF0012C49D0020ECA
:1044E0005D6EAF0E9A6F11EC06F05D2EFAD74DECB3
:1044F00017F0012C3DD0FA0E9A6F11EC06F073D72D
:10450000012C36D0020E5D6EFA0E9A6F11EC06F099
:104510005D2EFAD7A9EC16F0012C2AD0D2EC16F0B9
:10452000012C26D096D7012C23D0FA0E9A6F11ECCD
:1045300006F076EC17F0012C1BD0FA0E9A6F11ECF6
:1045400006F070EC16F0012C13D0020E5D6EFA0E20
:104550009A6F11EC06F05D2EFAD7A9EC16F0012C3B
:1045600007D0D2EC16F0ABD7960E9A6F11EC06F08E
:10457000000C2AEC0BF0012C29D0050E5D6E6E0E9E
:104580009A6F11EC06F05D2EFAD760EC0BF0012C5F
:104590001DD0960E9A6F11EC06F086EC0BF0012CF4
:1045A00015D0F8EC11F0199A01B0198A19AA0ED099
:1045B000199AC2D6199C01B0198C19AC07D0199C54
:1045C0001EEC16F047EC16F002D785DF000C2AEC43
:1045D0000BF0012C51D0020E5D6EFA0E9A6F11ECA9
:1045E00006F05D2EFAD7FBEC16F0012C45D0020E3A
:1045F0005D6E870E9A6F11EC06F05D2EFAD7EA6AAF
:104600002B0EE96E000EEF1008E0EF509EA8FED7CB
:10461000AD6EE92AD8B4EA2AF5D7199824EC17F038
:10462000012C2AD0050E5D6EC60E9A6F11EC06F0B5
:104630005D2EFAD719A603D019969BDF1DD001EC89
:104640000BF072EC07F0C80E9A6F11EC06F0010E39
:104650009A6F9B6F1BEC07F05D6A5D5006EC02F0F1
:104660005D2A006E996F50EC07F0140E5D5CF5E169
:104670000A0E8D6F0CEC0BF0C4EF23F081B28CD0DE
:10468000C80E9A6F11EC06F081A2FED772EC07F00B
:1046900013EC07F086B079D086A677D082B475D0B7
:1046A00081B673D081BA71D085B06FD0700E5E6E56
:1046B00056EC08F001C02AF0C80E9A6F11EC06F013
:1046C0002A3C07D0C80E9A6F11EC06F0020E1B6E42
:1046D00013D02A50FB0807E1C80E9A6F11EC06F0C0
:1046E000030E1B6E09D02A50F90806E1C80E9A6F16
:1046F00011EC06F0040E1B6E010E1B5CFC0F44E275
:10470000040FD3EF23F01B6A49DC3ED01B6A010E75
:104710009A6F020E9B6F1BEC07F05D6A5D505BECBD
:1047200005F05D2A006E996F50EC07F0130E5D5C8A
:10473000F5E14DD71B6A010E9A6F020E9B6F1BECC1
:1047400007F05D6A5D505BEC05F05D2A006E996FC5
:1047500050EC07F0130E5D5CF5E10BDF15D01B6A22
:10476000010E9A6F020E9B6F1BEC07F05D6A5D50A5
:104770005BEC05F05D2A006E996F50EC07F0130EAC
:104780005D5CF5E1A8DE00D006D0E0EC0AF00A0E90
:104790008D6F0CEC0BF005D01B2C03D01B6ACEECFC
:1047A0001FF07CEF24F0F2CF0EF0F29EE824F76ABF
:1047B000F736D10FF66E470EF722000EF86EFB6E3D
:1047C0000A00F550FA6E0800F5500EBEF28EF96E32
:1047D00006470C4734475E475E509EA8FED7AD6E35
:1047E00090EF24F0F86AD09E0D8EEA6AE96A810E95
:1047F000AF6EA60EAC6E900EAB6E810EAF6EA60EB7
:10480000AC6E900EAB6E810EAF6EA60EAC6E900EBF
:10481000AB6E810EAF6EA60EAC6E900EAB6E400E00
:104820006F6EA60E6C6E900E6B6E400E6F6EA60EC7
:104830006C6E900E6B6E400EAF6EA60EAC6E900E50
:10484000AB6E400EAF6EA20EAC6E900EAB6E810ED4
:10485000AF6EA60EAC6E900EAB6E150EAF6EA60EC2
:10486000AC6E900EAB6E810EAF6EA60EAC6E900E5F
:10487000AB6E400EAF6EA20EAC6E900EAB6E810EA4
:10488000AF6EA60EAC6E900EAB6E150EAF6EA60E92
:10489000AC6E900EAB6E810EAF6EA60EAC6E900E2F
:1048A000AB6EC150C00B0F09C16E070EB46E536AD8
:1048B000546A010E586E5B905C6AC00EF2129D8ABB
:1048C000A38AF28AF288F19CE70E926E3F0E936EF5
:1048D000860E946E000E956E800E966EFF0E976E8D
:1048E0001D0E986E000E996E9A6E95EF06F091EF80
:1048F0000AF09FEF17F0C2D619A014D0020E5D6E19
:10490000FA0E9A6F11EC06F05D2EFAD719905D6AD7
:104910005D5074EC05F0000904E05D2A5E6E5CD722
:08492000F7D7E5D7E6D7030045
:020000040030CA
:0E0000000026010E83018100FFC0FFE0FF40DB
:00000001FF
;PIC18F8720
